:020000040800F2
:1000000008510020392100080102000803020008FD
:10001000070200080B0200080F02000800000000A1
:1000200000000000000000000000000013020008B3
:10003000150200080000000017020008190200085D
:1000400053210008532100085321000853210008C0
:1000500053210008532100085321000853210008B0
:1000600053210008532100085321000853210008A0
:100070005321000853210008532100085321000890
:100080005321000853210008532100085321000880
:100090005321000853210008532100085321000870
:1000A0005321000853210008532100085321000860
:1000B0001B020008532100085321000853210008A7
:1000C0005321000853210008532100085321000840
:1000D00053210008EF220008532100085321000893
:1000E0005321000853210008532100085321000820
:1000F0005321000853210008532100085321000810
:1001000053210008532100085321000853210008FF
:1001100053210008532100085321000853210008EF
:1001200053210008532100085321000853210008DF
:10013000DFF80CD002F0C8FC004800474501000879
:100140000851002008B50024002502F007F84FF4FC
:10015000E13002F07DF802F019F902F0C9F902F07D
:10016000DCF902F03BF90121084601F08EFF012184
:10017000880700F0FDFF02F015FC02F057FA01229B
:100180000021032002F092FB00221146012002F020
:100190008DFB02220021052002F088FB002211467F
:1001A000092002F0B2FB24E01248006828B10020C8
:1001B0001049086010A002F099FC10200090601C0B
:1001C00080B20446024604231946282002F08EFA23
:1001D000642002F000F810200090681C80B20546F0
:1001E000024604230221282002F080FA642001F054
:1001F000F2FFD9E734000020686568650D0A000049
:10020000704700BFFEE700BFFEE700BFFEE700BF8C
:10021000FEE7704770477047704710B501218807A7
:1002200001F06FFA78B10121880701F07BFA0648E6
:100230000068401C0449086008460068B0F5167F55
:1002400001D10020086010BD000000200CB5002086
:10025000019000906C48006840F480306A49086062
:1002600000BF6948006800F4003000900198401C0D
:100270000190009818B90198B0F5A06FF1D16248CB
:10028000006800F4003010B10120009001E000206F
:1002900000900098012843D15C48006840F01000AD
:1002A0005A4908600846006820F0030008600846C4
:1002B000006840F0020008605348406852494860B6
:1002C0000846406848600846406840F480604860DE
:1002D0000846406820F47C1048600846406840F4B6
:1002E000E81048600846006840F08070086000BF71
:1002F0004548006800F000700028F9D04248406886
:1003000020F00300404948600846406840F0020081
:10031000486000BF3C48406800F00C000828F9D154
:100320000CBD10B5FFF792FF10BD10B53648006840
:1003300040F00100344908600846406834490840EC
:100340003149486008460068324908402E49086033
:100350000846006820F4802008600846406820F4C1
:10036000FE0048604FF41F008860FFF7DAFF4FF08F
:1003700000602949086010BD10B50021002000224E
:10038000214B5B6803F00C0121B1042906D0082938
:1003900028D107E0214B224C236027E01F4B204C43
:1003A000236023E0184B5B6803F47010164B5B6806
:1003B00003F48032022303EB904022B9194B4343EC
:1003C000174C23600DE0104B5B6803F4003323B13E
:1003D000144B4343124C236003E0104B4343104C37
:1003E000236003E00D4B0E4C236000BF00BF064BA3
:1003F0005B68C3F303130C4CE15C094B1B68CB40F7
:10040000074C236010BD0000001002400020024095
:100410000000FFF8FFFFF6FE08ED00E000127A0092
:100420000400002000093D0008000020314901437C
:10043000314A1160704770B5002100230F22C47843
:1004400004B32D4C246804F4E064C4F5E064210A8C
:10045000C1F10403CA40447804FA03F184781440DB
:1004600021430901254C0678A155047804F01F05A5
:100470000124AC4005786D11AD0005F1E025C5F80B
:10048000004109E0047804F01F050124AC401C4D34
:100490000678761145F8264070BD1A4A0A40024394
:1004A000154B1B1F1A60704739B1134A121D126891
:1004B0000243114B1B1D1A6006E00F4A121D126801
:1004C00082430D4B1B1D1A607047042808D14FF062
:1004D000E021096941F004014FF0E022116107E0D9
:1004E0004FF0E021096921F004014FF0E022116191
:1004F000704700000000FA050CED00E000E400E0A9
:1005000080E100E080FFFF1F10B50446FB488442F5
:1005100009D10121880301F0C5FD00214FF480407D
:1005200001F0C0FD32E0F648844209D101214804BF
:1005300001F0C5FD00214FF4003001F0C0FD25E0C1
:10054000F048844209D10121880401F0B8FD00215E
:100550004FF4802001F0B3FD18E0EB48844209D14C
:100560000121C80401F0ABFD00214FF4002001F08F
:10057000A6FD0BE0E548844208D10121080501F001
:100580009EFD00214FF4801001F099FD10BD2DE972
:10059000F04786B005460E460024A24600BFA1469D
:1005A0000027B08900B100BF2F462C8A4CF6FF709F
:1005B0000440F08804432C82AC894EF6F3100440CA
:1005C000B08831890843718908430443AC81AC8AFF
:1005D0004FF6FF400440B0890443AC8201A801F00B
:1005E000DAFCC648874202D1DDF810A001E0DDF850
:1005F0000CA0A88900F4004040B10AEBCA0000EB4F
:100600000A1031684900B0FBF1F807E00AEBCA00B4
:1006100000EB0A1031688900B0FBF1F86420B8FBE8
:10062000F0F004012009642101FB1089A88900F47D
:10063000004040B1322000EBC900B0FBF1F000F007
:100640000700044308E0322000EB09106421B0FBEE
:10065000F1F000F00F0004432C8106B0BDE8F087F4
:100660004FF41651016000218180C18001810C216D
:10067000418100218181704710B502460020108A17
:100680004FF2FF0318400B884C8823438C88234388
:10069000CC8823431843108210BD00210180418083
:1006A0008180C180704721B1828942F400528281E9
:1006B00004E082894DF6FF731A4082817047F0B5DD
:1006C0000346002400260025002040F66A17B942A0
:1006D00000D100BF1846C1F3421401F01F060127E4
:1006E00007FA06F5012C01D10C3004E0022C01D1EF
:1006F000103000E014301AB107682F43076002E0A1
:100700000768AF430760F0BD1AB1838A0B43838249
:1007100002E0838A8B4383827047028A4FF6F0732C
:100720001A400282028A0A430282704782894FF28B
:10073000FF731A40828182890A438281704721B106
:10074000828942F00202828104E082894FF6FD73C1
:100750001A4082817047028A4FF6DF731A40028284
:10076000028A0A430282704721B1028A42F480421F
:10077000028204E0028A4BF6FF731A40028270473D
:10078000C1F308028280704701468888C0F30800E0
:100790007047818941F0010181817047028BD2B29B
:1007A0000283028B42EA012202837047028B02F429
:1007B0007F420283028B0A430283704721B1828AFF
:1007C00042F02002828204E0828A4FF6DF731A40F0
:1007D0008282704721B1828A42F01002828204E054
:1007E000828A4FF6EF731A408282704721B1828A63
:1007F00042F00802828204E0828A4FF6F7731A40C0
:100800008282704721B1828942F40042828103E0F2
:100810008289C2F30E028281704721B1828A42F43A
:100820000062828204E0828A4FF2FF731A40828261
:100830007047828A4FF6FB731A408282828A0A438B
:100840008282704721B1828A42F00202828204E0F1
:10085000828A4FF6FD731A4082827047024600205A
:10086000B1F5007F00D100BF13880B400BB1012010
:1008700000E00020704701F40072B2F5007F00D163
:1008800000BFCA430280704770B5024600240023AF
:100890000025002040F66A16B14200D100BFC1F326
:1008A000421501F01F03012606FA03F3012D02D1C0
:1008B0009689334006E0022D02D1168A334001E0CA
:1008C000968A33400C12012606FA04F41688344046
:1008D00013B10CB1012000E0002070BD10B5002262
:1008E000002340F66A14A14200D100BF0A1201247D
:1008F0009440A3B2DC43048010BD000000380140E6
:100900000044004000480040004C004000500040BF
:1009100010B50446FE48844208D10121C01401F0FC
:10092000C1FB0021E01401F0BDFBC4E0B4F1804F35
:1009300008D10121084601F0C2FB0021012001F08D
:10094000BEFBB8E0F348844208D10121022001F047
:10095000B6FB0021022001F0B2FBACE0EE4884427D
:1009600008D10121042001F0AAFB0021042001F09C
:10097000A6FBA0E0E948844208D10121082001F04B
:100980009EFB0021082001F09AFB94E0E448844299
:1009900008D10121102001F092FB0021102001F06C
:1009A0008EFB88E0DF48844208D10121202001F03D
:1009B00086FB0021202001F082FB7CE0DA488442A3
:1009C00008D10121401401F06DFB0021601401F0F9
:1009D00069FB70E0D548844209D10121C80401F0C7
:1009E00061FB00214FF4002001F05CFB63E0D04884
:1009F000844209D10121080501F054FB00214FF484
:100A0000801001F04FFB56E0CA48844209D1012111
:100A1000480501F047FB00214FF4001001F042FBB4
:100A200049E0C548844208D10121402001F047FB3C
:100A30000021402001F043FB3DE0C048844208D142
:100A40000121802001F03BFB0021802001F037FBD9
:100A500031E0BB48844208D10121801501F02FFB11
:100A60000021A01501F02BFB25E0B648844209D1F6
:100A70000121080401F016FB00214FF4803001F041
:100A800011FB18E0B048844209D10121480401F06B
:100A900009FB00214FF4003001F004FB0BE0AB48F0
:100AA000844208D10121880401F0FCFA00214FF4AE
:100AB000802001F0F7FA10BD00220288944B984282
:100AC0000ED0994B98420BD0B0F1804F08D0914B8B
:100AD000984205D0904B984202D0904B984204D156
:100AE0004FF68F731A404B881A438D4B984207D0AC
:100AF0008C4B984204D04FF6FF431A40CB881A43E0
:100B000002808B8883850B880385814B98420BD0AC
:100B1000854B984208D08B4B984205D08A4B98421F
:100B200002D08A4B984201D10B7A0386012383823B
:100B3000704770B5002400220023058C4FF6FE7626
:100B400035400584028C8388048B4FF68F752C40CA
:100B5000B51E2C400D882C43751E2A400D892A4352
:100B60004D882A436A4DA8420BD06F4DA84208D049
:100B7000744DA84205D0744DA84202D0734DA842CE
:100B800013D14FF6F7752A404D892A434FF6FB756E
:100B90002A408D882A434FF6FF652B404FF6FF55BC
:100BA0002B408D892B43CD892B4383800483CD88B3
:100BB0008586028470BD70B5002400220023058C58
:100BC0004FF6EF7635400584028C8388048B48F617
:100BD000FF752C404FF6FF452C400D884FF6FF76F1
:100BE00006EA05252C434FF6DF752A400D8906EAF3
:100BF00005152A434D8806EA05152A43444DA842A7
:100C000002D0494DA8421DD14FF67F752A404D892B
:100C10004FF6FF7606EA05152A434FF6BF752A40C0
:100C20008D8806EA05152A434FF6FF352B404FF213
:100C3000FF752B408D8906EA85052B43CD8906EA91
:100C400085052B4383800483CD880587028470BD8E
:100C500070B5002400220023058C4FF6FF66354056
:100C60000584028C8388848B4FF68F752C404FF659
:100C7000FC752C400D882C434FF6FF552A400D89FA
:100C80004FF6FF7606EA05252A434D8806EA052534
:100C90002A431F4DA84202D0234DA8421DD14FF236
:100CA000FF752A404D894FF6FF7606EA05252A434F
:100CB0004FF6FF352A408D8806EA05252A434EF671
:100CC000FF752B404DF6FF752B408D8906EA051503
:100CD0002B43CD8906EA05152B4383808483CD8879
:100CE0008587028470BD70B5002200230024058C26
:100CF0004EF6FF7635400584038C8488828B48F657
:100D0000FF752A404FF6FF452A400D8820E000007D
:100D1000002C01400004004000080040000C00408E
:100D2000001000400014004000340140004C01401D
:100D3000005001400054014000180040001C0040D9
:100D400000200040004001400044014000480140B4
:100D50004FF6FF7606EA05252A434DF6FF752B4030
:100D60000D8906EA05352B434D8806EA05352B43E8
:100D7000FA4DA84202D0FA4DA84208D14BF6FF75B1
:100D80002C408D894FF6FF7606EA85152C4384802A
:100D90008283CD88A0F84050038470BD828B4FF2CF
:100DA000FF331A408283828B4FF6FF7303EA0123DD
:100DB0001A4382837047F0B50C4615460022002185
:100DC0000026078C4EF6FF7C07EA0C070784828B0F
:100DD000018C4FF6FF7707EA043640F6FF473A40AA
:100DE0004FF6FF7707EA05273A434FF6FF7707EA02
:100DF00003373A43D94FB8420ED0D94FB8420BD03F
:100E0000B0F1804F08D0D74FB84205D0D64FB84286
:100E100002D0D64FB84206D14DF6FF77394046F49E
:100E20008057394305E047F6FF57394044F480576F
:100E3000394382830184F0BD828B4FF6F3731A40ED
:100E40008283828B0A4382837047F0B50C46154635
:100E5000002200210026078C4FF6FF6C07EA0C07E2
:100E60000784828B018C4FF6FF7707EA04264FF642
:100E70000C773A404FF6FF7707EA03172F433A43C0
:100E8000B64FB8420ED0B64FB8420BD0B0F1804F3B
:100E900008D0B44FB84205D0B34FB84202D0B34FD8
:100EA000B84206D14FF6FF57394046F480773943B0
:100EB00005E04FF2FF57394044F48077394382838D
:100EC0000184F0BD028B4FF2FF331A400283028B84
:100ED0004FF6FF7303EA01231A4302837047F0B50C
:100EE0000C461546002200210026078C4FF6EF7CA9
:100EF00007EA0C070784028B018C4FF6FF7707EA9D
:100F0000041640F6FF473A404FF6FF7707EA0337EB
:100F10003A434FF6FF7707EA05273A438F4FB84227
:100F20000ED08F4FB8420BD0B0F1804F08D08D4F0C
:100F3000B84205D08C4FB84202D08C4FB84206D18F
:100F40004FF6DF77394046F01007394305E04FF69A
:100F50005F77394044F01007394302830184F0BDC4
:100F6000028B4FF6F3731A400283028B0A4302830B
:100F70007047F0B50C46154600220021068C4FF64E
:100F8000FE773E400684028B018C4FF60C76324091
:100F90007E1C06EA03162E433243704EB0420ED03A
:100FA0006F4EB0420BD0B0F1804F08D06D4EB042C2
:100FB00005D06D4EB04202D06C4EB04206D14FF615
:100FC000FD76314044F00106314305E04FF6F576F9
:100FD000314044F00106314302830184F0BD70B515
:100FE00005460C465D4885420ED05D4885420BD0D3
:100FF000B5F1804F08D05B48854205D05A488542FC
:1010000002D05A48854200D100E000BF208850B984
:101010002389A28861882846FFF7ABFFE18828462C
:10102000FFF79EFF25E0208804280AD12389A288A3
:1010300061882846FFF753FFE1882846FFF742FF03
:1010400017E0208808280AD12389A28861882846C9
:10105000FFF7FBFEE1882846FFF7EEFE09E0238953
:10106000A28861882846FFF7A6FEE1882846FFF798
:1010700095FE70BD2DE9F04105460C46002601277E
:10108000608808B9022600E00026A088012801D166
:10109000022700E001272088A0B92389A28861885F
:1010A0002846FFF766FFE1882846FFF759FF2389A6
:1010B0003A4631462846FFF712FFE1882846FFF7F7
:1010C00001FF13E02389A28861882846FFF707FF04
:1010D000E1882846FFF7F6FE23893A46314628463E
:1010E000FFF747FFE1882846FFF73AFFBDE8F081A8
:1010F0000A884B881A438B881A43CB881A430B897A
:101100001A434B891A438B891A43A0F8442070472D
:101110004FF6FF71818000210180C1804180017202
:1011200070470021018041808180C180018141811F
:101130008181C1817047002101804180012181802E
:101140000021C180018170470021018041808180A0
:10115000C18001814181818170470000002C0140E4
:10116000003401400004004000080040000C004032
:1011700021B1028842F00102028004E002884FF6A9
:10118000FE731A400280704731B1B0F8442042F437
:101190000042A0F8442005E0B0F84420C2F30E025B
:1011A000A0F8442070471AB183890B43838102E081
:1011B00083898B43838170478182704741EA0203B0
:1011C000A0F8483070471AB183890B43838102E04D
:1011D00083898B438381704701894FF6F8721140F0
:1011E000018170470A46002101894FF68F7319402B
:1011F00011430181704730B504460D46294620460B
:10120000FFF7F0FF208940F00700208130BD2DE975
:10121000F04104460D4616461F46602D06D13B465A
:10122000012231462046FFF75AFE05E03B460122E7
:1012300031462046FFF79DFE29462046FFF7D2FFA4
:10124000208940F007002081BDE8F08130B50C46D0
:1012500000210189C9B24FF6FF7505EA0325154340
:1012600025432943018130BD2DE9F04105460E4655
:1012700017469846002443463A4631462846FFF72B
:10128000E5FF2C894FF6F870044044F007044FF650
:101290008F70044044F070042C81BDE8F081F0B5FB
:1012A00004460D4616461F463B4632462946204612
:1012B000FFF7CCFF208940F480402081F0BD0185FC
:1012C000828270470A46002101884FF68F731940C9
:1012D000114301807047F0B50C4615461E460021AB
:1012E000002200230189028B038C4FF6F8773940E6
:1012F00021434FF6FC473A4040F201173A434FF67C
:10130000DD773B404FF6FF7707EA06172F433B4355
:10131000018102830384F0BD0A460021018B4FF650
:101320008F7319401143018370470A460021018BD6
:1013300048F6FF7319404FF6FF7303EA022319437F
:10134000018370470A460021818B4FF68F73194045
:101350001143818370470A460021818B48F6FF7351
:1013600019404FF6FF7303EA022319438183704744
:1013700021B1028842F08002028004E002884FF628
:101380007F731A400280704721B1828842F00402C4
:10139000828004E082884FF6FB731A408280704797
:1013A00021B1828842F00802828004E082884FF6F0
:1013B000F7731A408280704721B1828842F001029F
:1013C000828004E082884FF6FE731A408280704764
:1013D0000A460021018B4FF6F77319401143018330
:1013E00070470A460021018B4FF2FF7319404FF6F8
:1013F000FF7303EA02231943018370470A46002161
:10140000818B4FF6F77319401143818370470A4669
:101410000021818B4FF2FF7319404FF6FF7303EAEF
:1014200002231943818370470A460021018B4FF63E
:10143000FB7319401143018370470A460021018B59
:101440004FF6FF3319404FF6FF7303EA02231943A7
:10145000018370470A460021818B4FF6FB731940C8
:101460001143818370470A460021818B4FF6FF3379
:1014700019404FF6FF7303EA022319438183704733
:101480000A460021018B4FF67F73194011430183F7
:1014900070470A460021018BC1F30E014FF6FF731E
:1014A00003EA02231943018370470A460021818B16
:1014B0004FF67F7319401143818370470A4600211C
:1014C000818BC1F30E014FF6FF7303EA0223194328
:1014D000818370470A460021018C4FF6FD73194045
:1014E0001143018470470A460021018C4FF6F773BF
:1014F00019401143018470470A460021018C4FF6C0
:10150000DF7319404FF6FF7303EA02131943018496
:1015100070470A460021018C4FF67F7319404FF641
:10152000FF7303EA02131943018470470A4600213E
:10153000018C4FF6FF5319404FF6FF7303EA022365
:101540001943018470470A460021018C4FF2FF7352
:1015500019404FF6FF7303EA0223194301847047D1
:101560000A460021018C4DF6FF7319404FF6FF73B8
:1015700003EA023319430184704730B50023012484
:101580008C40A3B2048C9C430484048C02FA01F5C1
:10159000ADB22C43048430BD30B5002304248C400C
:1015A000A3B2048C9C430484048C02FA01F5ADB20E
:1015B0002C43048430BD70B5034600200024184637
:1015C000183001258D40ACB21D8CA5431D8409B196
:1015D000082909D100EB6100056825F07005056058
:1015E0000568154305600EE00D1FC5F34E05284440
:1015F000056825F4E045056005684FF6FF7606EAC4
:1016000002263543056070BD21B1028842F0020216
:10161000028004E002884FF6FD731A400280704792
:1016200021B1028842F00402028004E002884FF6F1
:10163000FB731A400280704721B1828842F0800219
:10164000828004E082884FF67F731A408280704760
:1016500002884FF6F7731A40028002880A4302801C
:10166000704782884FF68F731A40828082880A43BF
:101670008280704702894FF6F8731A40028102890E
:101680000A430281704702894FF67F731A40028134
:1016900002890A43028170478184704781857047BF
:1016A000818670470187704781877047A0F8401096
:1016B000704702884FF6FF431A40028002880A43AF
:1016C000028070470146888E70470146088F704738
:1016D0000146888F70470146B1F8400070470146C7
:1016E000888C70470146088D704702460020138A97
:1016F0000B400BB1012000E000207047CA4302827A
:10170000704730B50246002000230024158A05EA00
:101710000103958905EA010413B10CB1012000E031
:10172000002030BDCA4302827047000010B5044655
:10173000BE48844208D10121801400F0B3FC00218E
:10174000A01400F0AFFC16E0B948844208D1012192
:10175000001400F0B4FC0021201400F0B0FC0AE0FA
:10176000B448844207D10121C01300F0A8FC002135
:10177000E01300F0A4FC10BD10B50022028802F4B2
:1017800041520B884C8823438C882343CC882343C5
:101790000C8923434C8923438C892343CC892343DD
:1017A0001A430280838B4FF2FF74234083830B8A9A
:1017B000038210BD2DE9F04F85B005460C464FF071
:1017C000000902274FF000084FF0010B0026B24637
:1017D000A88B4FF240010840A88302202884B5F866
:1017E0001C90A068022801D100BF38E0A08810B981
:1017F0004FF0010B01E04FF0020B8D48854200D104
:1018000000E000BF684600F0C6FBDDF800A0E088FD
:10181000B0F5007F0AD14FEA1A2000EB80004000AB
:10182000A168B0FBF1F0401D86B20BE04FEA4B100F
:10183000BAFBF0F000EB80004000A168B0FBF1F0D3
:10184000401D86B20A20B6FBF0F606F00108A6EBB2
:101850000800C0F34F074FF6FF7000EA0828022F78
:1018600001DBFF2F02DD02274FF00008E08840EA8D
:10187000080038432884A088A18908436188084368
:101880002188084340F4006040EA0909A5F81C904B
:1018900005B0BDE8F08F0021018041808180C180CA
:1018A000018141818181C18107210182704700212D
:1018B000018041808180C18002218160002181817D
:1018C000704721B1028842F04002028004E00288A1
:1018D0004FF6BF731A400280704721B1828B42F4E9
:1018E0008062828304E0828B4FF6FF331A4082834A
:1018F000704730B5002400230C110125A540ABB280
:101900001AB185881D43858002E085889D438580C6
:1019100030BD1AB183880B43838002E083888B43F8
:1019200083807047818170470146888970474FF6F0
:10193000FF62914204D0028842F48072028004E087
:1019400002884FF6FF631A400280704721B18288F7
:1019500042F00402828004E082884FF6FB731A4052
:101960008280704702884FF2FF731A40028002881B
:101970000A4302807047018841F48051018070471A
:1019800021B1028842F40052028004E002884DF640
:10199000FF731A400280704702460020012901D0DF
:1019A000108B00E0908A70470146088A7047B1F5B5
:1019B000804F04D1028842F48042028004E0028811
:1019C0004BF6FF731A4002807047024600201389CD
:1019D0000B400BB1012000E000207047CA43028198
:1019E0007047F0B50246002000240023002501F0D6
:1019F0000F070126BE40B4B20B1101269E40B3B2C0
:101A0000968806EA03051689264016B10DB1012015
:101A100000E00020F0BD10B5002201F00F0401230A
:101A2000A3409AB2D343038110BD000000300140AF
:101A300000380040003C004010B50446CC488442C9
:101A400008D10121042000F02DFB0021042000F02A
:101A500029FB46E0C748844208D10121082000F054
:101A600021FB0021082000F01DFB3AE0C24884421F
:101A700008D10121102000F015FB0021102000F0FA
:101A800011FB2EE0BD48844208D10121202000F046
:101A900009FB0021202000F005FB22E0B848844229
:101AA00008D10121402000F0FDFA0021402000F083
:101AB000F9FA16E0B348844208D10121802000F0F1
:101AC000F1FA0021802000F0EDFA0AE0AE488442ED
:101AD00007D10121801500F0E5FA0021A01500F0E2
:101AE000E1FA10BD10B50121084600F0DBFA002133
:101AF000012000F0D7FA10BD2DE9F0410246002583
:101B00000026002000230024002791F803C00CF0D9
:101B10000F0591F803C00CF0100CBCF1000F03D0BE
:101B200091F802C04CEA050591F800C0BCF1000F25
:101B300031D0146800202BE04FF0010C0CFA00F3B8
:101B4000B1F800C00CEA03069E4220D183004FF09A
:101B50000F0C0CFA03F7BC4305FA03FC4CEA04042F
:101B600091F803C0BCF1280F06D14FF0010C0CFA1C
:101B700000FCC2F814C00AE091F803C0BCF1480FA1
:101B800005D14FF0010C0CFA00FCC2F810C0401C4B
:101B90000828D1D31460B1F800C0BCF1FF0F34DDC8
:101BA000546800202EE000F1080C4FF0010808FAFC
:101BB0000CF3B1F800C00CEA03069E4221D1830069
:101BC0004FF00F0C0CFA03F7BC4305FA03FC4CEA88
:101BD000040491F803C0BCF1280F05D100F1080CF2
:101BE00008FA0CF8C2F8148091F803C0BCF1480F51
:101BF00007D100F1080C4FF0010808FA0CF8C2F800
:101C00001080401C0828CED35460BDE8F0814FF608
:101C1000FF710180022181700421C170704702466A
:101C2000002093680B400BB1012000E000207047BA
:101C30000146886880B2704702460020D3680B4096
:101C40000BB1012000E0002070470146C86880B257
:101C5000704701617047416170470AB1016100E05E
:101C600041617047C16070474FF480320A4382611E
:101C70008161826182698269704702460020434B1C
:101C800018684FF68073184040EA021008433F4B33
:101C9000186070473E49C8617047F0B50A46002396
:101CA00000240021002500F00046B6F1004F02D1CB
:101CB000364EF16901E0354E7168C0F3034583B2D9
:101CC00000F44016B6F5401F08D121F070612F4E88
:101CD000766826F070662D4F7E6012E000F4801664
:101CE000B6F5801F06D1032606FA05F4A14341F09C
:101CF000706106E0460D360103FA06F6B14341F085
:101D0000706122B1460D360103FA06F6314300F048
:101D10000046B6F1004F02D11C4EF16101E01B4EAE
:101D20007160F0BD30B500228B071C0F0F2303FA42
:101D300004F2164B08338C1053F824309343134CA1
:101D400008348D1044F8253023468C1053F8243085
:101D50008C07240F00FA04F423430C4C08348D1034
:101D600044F8253030BD0A49DC3108607047000076
:101D700000080140000C0140001001400014014027
:101D800000180140001C01400020014000000140FB
:101D900000002042DF48006840F00100DD49086093
:101DA00008464068DC490840DA494860084600684F
:101DB000DA490840D74908600846006820F48020C6
:101DC00008600846406820F4FE0048604FF41F0099
:101DD00088607047CF49096821F48031CD4A11608D
:101DE0001146096821F480211160B0F5803F03D0CD
:101DF000B0F5802F0ED106E0C649096841F4803164
:101E0000C44A116007E0C349096841F4A021C14AEE
:101E1000116000E000BF00BF704710B5014600220E
:101E2000002300204A11012A02D1BA4C236806E09F
:101E3000022A02D1B74C236A01E0B64C636A01F072
:101E40001F02012494401C400CB1012000E000203E
:101E500010BD38B5002000900024002500BF3120BF
:101E6000FFF7DBFF05460098401C00900098B0F596
:101E7000A06F01D0002DF2D03120FFF7CEFF08B1C6
:101E8000012400E00024204638BD01460020A14A7C
:101E9000106820F0F80040EAC10010607047A049C7
:101EA00008607047024600209A4B586820F47C1066
:101EB00042EA01031843974B5860704798490866F7
:101EC000704701460020934A506820F00300084301
:101ED000506070478F48406800F00C007047014622
:101EE00000208C4A506820F0F00008435060704792
:101EF00001460020874A506820F4E06008435060A3
:101F0000704701460020834A506820F4605040EA40
:101F1000C1005060704729B17E4A527A02437D4B1E
:101F20005A7204E07B4A527A82437A4B5A72704763
:101F30007B49D8310860704701460020754A5068D7
:101F400020F440400843506070470021714A20321D
:101F50001170704A82F82010012802D004280AD19A
:101F600004E001216B4A2032117005E00521694A25
:101F70002032117000E000BF00BF7047694908605F
:101F800070476449096A0143624A116270476549B2
:101F900044390860704730B5002100220024002336
:101FA0005C4D6D6805F00C0121B1042905D00829AC
:101FB00023D105E05C4D056022E05B4D05601FE02C
:101FC000544D6D6805F47012524D6D6805F48034FF
:101FD000022505EB92421CB9544D554305600BE0B8
:101FE0004C4D6D6805F400351DB1504D55430560ED
:101FF00002E04D4D5543056002E04B4D056000BFCA
:1020000000BF444D6D6805F0F0010909484D6B5C57
:102010000568DD4045603F4D6D6805F4E061090AE3
:10202000434D6B5C4568DD4085603A4D6D6805F455
:102030006051C90A3E4D6B5C4568DD40C560354D59
:102040006D6805F44041890B3A4D6B5CC568B5FB82
:10205000F3F5056130BD29B12E4A526902432D4B7B
:102060005A6104E02B4A526982432A4B5A617047F5
:1020700029B1284A92690243264B9A6104E0254A15
:1020800092698243234B9A61704729B1214AD269F0
:102090000243204BDA6104E01E4AD26982431D4BA1
:1020A000DA61704729B11B4AD2680243194BDA60E2
:1020B00004E0184AD2688243164BDA60704729B1AF
:1020C000144A12690243134B1A6104E0114A12695F
:1020D0008243104B1A6170471249403908607047BB
:1020E0000F49C86470470B49C87170470948406A76
:1020F00040F0807007494862704701460020054A59
:1021000092680A400AB1012000E0002070470149AE
:1021100088727047001002400000FFF8FFFFF6FED3
:10212000000042428004424200127A0000093D0051
:102130001800002028000020064880470648004775
:10214000FEE7FEE7FEE7FEE7FEE7FEE7FEE7FEE767
:10215000FEE7FEE72B0300083101000810B56FF021
:102160000400FEF7B2F92E4800682E49B0FBF1F0EA
:102170002D4908700846007800EB4001C1EBC01003
:102180004FF6FF7101EAC0002849088010BD0146E2
:10219000254A12784A434FF0E0235A6100229A619F
:1021A0001A46126942F001021A6100BF4FF0E022A4
:1021B000106900F001021AB100F48032002AF5D053
:1021C0004FF0E022126922F001024FF0E0231A6181
:1021D00000229A6170470146144A12884A434FF020
:1021E000E0235A6100229A611A46126942F0010204
:1021F0001A6100BF4FF0E022106900F001021AB12D
:1022000000F48032002AF5D04FF0E022126922F06B
:1022100001024FF0E0231A6100229A61704700002A
:102220000400002000127A002C0000202E00002064
:1022300070B504460D4600BF40214F48FEF70EFB27
:102240000028F9D0E1B24C48FEF79AFA204670BD5A
:1022500010B586B00446012144F20400FFF708FFE0
:102260004548FEF751F94FF40070ADF81400032013
:102270008DF8160018208DF8170005A93F48FFF7C4
:102280003BFC4FF48060ADF8140004208DF817007B
:1022900005A93A48FFF730FC01940020ADF808008A
:1022A000ADF80A00ADF80C00ADF810000C20ADF848
:1022B0000E0001A93048FEF76AF925208DF80000CC
:1022C00003208DF801008DF8020001208DF8030035
:1022D0006846FEF7B0F8012240F225512648FEF785
:1022E000EEF901212448FEF7DEF906B010BD10B565
:1022F00040F225512048FEF7C7FA00283AD01E4880
:10230000FEF742FAC4B21E48008800F40040F8B953
:102310001B48008800F4804090B10A2C03D00020B4
:102320001749088005E01648008840F40040144929
:10233000088001201349086000201149088019E035
:102340000D2C06D10E48008840F480400C490880CE
:1023500010E00B480088C0F30D000B490C540848EE
:102360000088401C0649088008460088C72801DD0F
:102370000020088010BD0000003801400008014026
:1023800030000020340000203C00002008B501216E
:102390000420FFF76DFE0220ADF8000010208DF83C
:1023A000030003208DF8020069460B48FFF7A4FBE9
:1023B00002210948FFF74DFC08BD10B50446012C69
:1023C00004D102210448FFF746FC04E01CB90221B5
:1023D0000148FFF73EFC10BD0008014000B587B082
:1023E000012141F20500FFF743FEE020ADF818009F
:1023F00018208DF81B0003208DF81A0006A93A4812
:10240000FFF77AFBE0213848FFF723FC0020ADF806
:1024100004004FF48270ADF806000020ADF808000B
:10242000ADF80A00ADF80C004FF40070ADF80E00E6
:102430001820ADF810000020ADF812000720ADF80C
:10244000140001A92948FFF797F901212748FFF750
:1024500038FA07B000BD10B50446244800884FF68E
:10246000C771084021490880084600882043088039
:1024700001211E48FFF725FA10BD00BF1B4909893D
:1024800001F002010029F9D01849888100BF1749DD
:10249000098901F001010029F9D01449898970479F
:1024A00000BF1248008900F002000028F9D0FF2088
:1024B0000E49888100BF0D48008900F00100002806
:1024C000F9D00A488089C0B2704710B5044600BFF1
:1024D00002210648FFF779FA0028F9D0214603487F
:1024E000FFF720FA10BD0000000801400030014055
:1024F00008B54FF4E060FDF799FF1C208DF800004F
:1025000000208DF8010003208DF8020001208DF8D5
:1025100003006846FDF78FFF08BD0EB50121084690
:10252000FFF7B3FD4FF08040FEF7F2F94FF47A70F9
:10253000ADF804004720ADF800000020ADF806001B
:10254000ADF8020069464FF08040FEF7B5FA012170
:102550008807FFF7D3F8012211469007FEF723FE04
:1025600001218807FEF704FE00210120FFF78DFD01
:102570000EBD000008E04FF4E16100BF0A1EA1F1AA
:10258000010399B2FAD1401E0028F4D1704770B50A
:1025900004460E4626B11021FD48FFF75AFB03E022
:1025A0001021FB48FFF757FB0221F948FFF753FBC7
:1025B000002519E04FF48071F548FFF74CFB04F05B
:1025C000800020B10421F248FFF743FB03E004211F
:1025D000EF48FFF740FB4FF48071ED48FFF739FB00
:1025E0006006040E681CC5B2082DE3DB0221E84832
:1025F000FFF72FFB1021E648FFF72BFB70BD70B5EE
:1026000004460D4605F1B001C8B20021FFF7BFFF37
:10261000102141EA14100021FFF7B9FF04F00F0167
:1026200041F002000021FFF7B2FF70BD70B5002439
:1026300019E004F1B001C8B20021FFF7A8FF0021A2
:102640000220FFF7A4FF00211020FFF7A0FF0025C4
:1026500005E001210020FFF79AFF681CC5B2802D1C
:10266000F7DB601CC4B2082CE3DB70BD2DE9F04140
:1026700007460E46904600250024A8F12000C5B26A
:102680007F2F02DD0027B01CC6B231463846FFF767
:10269000B6FF002408E004EB0511BE4A505C01219E
:1026A000FFF775FF601CC4B2082CF4DB701CC1B2CC
:1026B0003846FFF7A4FF002409E004EB05110831B8
:1026C000B44A505C0121FFF762FF601CC4B2082CC1
:1026D000F3DBBDE8F08110B50246012000E0504375
:1026E0000B1EA1F10104E1B2F9D110BD2DE9FF5F8C
:1026F000074691461D460E9E4FF0000A002433E027
:10270000281B401EC1B20A20FFF7E5FFB9FBF0F01D
:102710000A21B0FBF1F201FB1208BAF1000F13D14C
:10272000681EA04210DDB8F1000F0BD1B34606EBD6
:10273000DB71491001FB0471C8B220220199FFF737
:1027400095FF0FE04FF0010AB34606EBDB7149102D
:1027500001FB0471C8B208F13001CAB20199FFF758
:1027600085FF00BF601CC4B2AC42C9DBBDE8FF9F5F
:102770002DE9F04104460F46154600260EE0AA5DFD
:1027800039462046FFF772FF04F10800C4B2782CE6
:1027900002DD0024B81CC7B2701CC6B2A85D0028B8
:1027A000EDD1BDE8F0812DE9F04106460F46154612
:1027B0004FF00008F006060E39463046FFF71FFFBF
:1027C00000240CE0744A02EB4511085D0121FFF77B
:1027D000DEFE08F1010000F0FF08601CC4B2102CFE
:1027E000F0DB781CC1B23046FFF709FF00240EE091
:1027F0006900491C684A02EB0111085D0121FFF7DD
:10280000C6FE08F1010000F0FF08601CC4B2102CE5
:10281000EEDBBDE8F0812DE9F0470746884691469A
:102820004FF0000A0025F806070E00263AE008EBF4
:102830000600C1B23846FFF7E2FE00240FE008218F
:1028400001FB0951544A02EB0111085D0121FFF718
:102850009EFE0AF1010000F0FF0A601CC4B2102CB9
:10286000EDDB681CC5B208EB0602D1B207F110021D
:10287000D0B2FFF7C4FE00240FE0082101FB09518C
:10288000454A02EB0111085D0121FFF780FE0AF1C4
:10289000010000F0FF0A601CC4B2102CEDDB681CC4
:1028A000C5B2761C042EC2DBBDE8F0872DE9F041ED
:1028B00006460F4615460024F006060E39463046F9
:1028C000FFF79DFE00BF08E0344A02EB4511085DAA
:1028D0000121FFF75CFE601C84B2102CF4DB781C35
:1028E000C1B23046FFF78BFE00240AE06900491CA4
:1028F0002A4A02EB0111085D0121FFF748FE601C26
:1029000084B2102CF2DBBDE8F0812DE9F0410646DF
:102910000F4615460024F006060E39463046FFF7EE
:102920006EFE00BF08E01E4901EBC501085D0121F4
:10293000FFF72DFE601C84B2082CF4DB781CC1B2BA
:102940003046FFF75CFE00240AE06900491C144A87
:1029500002EBC101085D0121FFF719FE601C84B282
:10296000082CF2DBBDE8F08108B501210420FFF757
:102970007FFB4FF48F70ADF8000010208DF803003E
:1029800001208DF8020069460148FFF7B5F808BD3F
:1029900000080140642D0008343400083436000873
:1029A000B436000810B5FFF7DFFF08214548FFF7F0
:1029B00050F96420FFF7DEFD08214248FFF74BF98C
:1029C0006420FFF7D7FD08213E48FFF742F90021B8
:1029D000AE20FFF7DCFD00210220FFF7D8FD00212B
:1029E0001020FFF7D4FD00214020FFF7D0FD00218B
:1029F0008120FFF7CCFD0021A520FFF7C8FD0021B5
:102A0000A120FFF7C4FD0021C820FFF7C0FD002171
:102A1000A620FFF7BCFD0021A820FFF7B8FD00218C
:102A20003F20FFF7B4FD0021D320FFF7B0FD0021C8
:102A30000846FFF7ACFD0021D520FFF7A8FD0021D7
:102A40008020FFF7A4FD0021D920FFF7A0FD002181
:102A5000F120FFF79CFD0021DA20FFF798FD00210F
:102A60001220FFF794FD0021DB20FFF790FD0021ED
:102A70004020FFF78CFD00212020FFF788FD00217A
:102A80000220FFF784FD00218D20FFF780FD00214B
:102A90001420FFF77CFD0021A420FFF778FD002122
:102AA000A620FFF774FD0021AF20FFF770FD002185
:102AB000AF20FFF76CFDFFF7B9FD00210846FFF7D7
:102AC0009EFD10BD00080140064C074D06E0E06881
:102AD00040F0010394E8070098471034AC42F6D365
:102AE000FDF72AFBC4360008E4360008014A024913
:102AF00000F013B8312200083800002002E008C8B6
:102B0000121F08C1002AFAD170477047002001E067
:102B100001C1121F002AFBD170472DE9F041164672
:102B20000F460446002503E03946B047641C6D1C7F
:102B300020780028F8D12846BDE8F0810000000088
:102B400000000000002F0000000007000700001434
:102B50007F147F1400242A7F2A1200626408132342
:102B600000364955225000000503000000001C22D9
:102B70004100000041221C000014083E0814000817
:102B8000083E0808000000A06000000808080808C7
:102B9000000060600000002010080402003E51495F
:102BA000453E0000427F40000042615149460021FD
:102BB00041454B31001814127F1000274545453917
:102BC000003C4A4949300001710905030036494972
:102BD000493600064949291E00003636000000002B
:102BE0005636000000081422410000141414141476
:102BF000000041221408000201510906003249591F
:102C0000513E007C1211127C007F49494936003E3A
:102C100041414122007F4141221C007F49494941F5
:102C2000007F09090901003E4149497A007F0808EF
:102C3000087F0000417F4100002040413F01007FAC
:102C400008142241007F40404040007F020C027F78
:102C5000007F0408107F003E4141413E007F09098A
:102C60000906003E4151215E007F091929460046B0
:102C7000494949310001017F0101003F4040403F87
:102C8000001F2040201F003F4038403F00631408D1
:102C900014630007087008070061514945430000AC
:102CA0007F41410000552A552A55000041417F00CF
:102CB00000040201020400404040404000000102C4
:102CC0000400002054545478007F484444380038AD
:102CD0004444442000384444487F00385454541835
:102CE00000087E0901020018A4A4A47C007F080447
:102CF00004780000447D4000004080847D00007F17
:102D0000102844000000417F4000007C0418047833
:102D1000007C0804047800384444443800FC24242F
:102D200024180018242418FC007C08040408004817
:102D30005454542000043F444020003C4040207C38
:102D4000001C2040201C003C4030403C0044281027
:102D50002844001CA0A0A07C004464544C441414DB
:102D60001414141400000000000000000000000013
:102D700000000000000000F8000000000000003328
:102D80003000000000100C06100C060000000000CF
:102D90000000000040C07840C0784000043F0404B8
:102DA0003F040400007088FC08300000001820FF79
:102DB000211E0000F008F000E018000000211C03B4
:102DC0001E211E0000F00888700000001E21232430
:102DD0001927211010160E0000000000000000004E
:102DE00000000000000000E01804020000000007DE
:102DF0001820400000020418E000000000402018E5
:102E000007000000404080F0804040000202010FB7
:102E100001020200000000F0000000000101011F9B
:102E200001010100000000000000000080B07000FF
:102E3000000000000000000000000000000101018F
:102E4000010101010000000000000000003030001E
:102E500000000000000000008060180400601806F8
:102E60000100000000F00804040408F0000F102026
:102E70002020100F00000808FC00000000000000E7
:102E80003F0000000030080404048870003028244B
:102E9000222120200010088484844830000810205B
:102EA0002020110E000080601804FC0000060504BC
:102EB00004043F0400FC84444444840400091020BA
:102EC0002020100F00F0884444448810000F102088
:102ED0002020100F000404048464140C0000003C43
:102EE000030000000030488484844830000E112024
:102EF0002020110E00F00804040408F0000811223C
:102F00002222110F000000C0C000000000000030AD
:102F10003000000000000080000000000000806021
:102F200000000000000080402010080000010204A2
:102F30000810200040404040404040000404040489
:102F40000404040000081020408000000020100845
:102F500004020100007048080808F000000000307A
:102F600036010000C030C828E810E0000718272408
:102F700023140B000000C038E0000000203C2302B6
:102F80000227382008F8888888700000203F202019
:102F900020110E00C030080808083800071820204B
:102FA0002010080008F808080810E000203F202042
:102FB00020100F0008F88888E8081000203F202023
:102FC0002320180008F88888E8081000203F200017
:102FD00003000000C030080808380000071820204F
:102FE000221E020008F808000008F808203F21010E
:102FF00001213F20000808F8080800000020203FB9
:103000002020000000000808F8080800C080808028
:103010007F00000008F888C028180800203F200121
:103020002638200008F8080000000000203F20207B
:103030002020300008F8F800F8F80800203F003F92
:10304000003F200008F830C00008F808203F2000AA
:1030500007183F00E01008080810E0000F102020BB
:1030600020100F0008F808080808F000203F210190
:1030700001010000E01008080810E0000F182424E7
:1030800038504F0008F8888888887000203F20005A
:10309000030C302000708808080838000038202110
:1030A00021221C00180808F8080818000000203F1A
:1030B0002000000008F808000008F808001F202081
:1030C00020201F000878880000C838080000073852
:1030D0000E010000F80800F80008F800033C0700A3
:1030E000073C0300081868808068180820302C030B
:1030F000032C30200838C800C83808000000203FE2
:103100002000000010080808C838080020382621D0
:1031100020201800000000FE020202000000007FD4
:1031200040404000000C30C00000000000000001E2
:103130000638C00000020202FE00000000404040CD
:103140007F000000000004020202040000000000F2
:10315000000000000000000000000000808080806F
:103160008080808000020204000000000000000057
:1031700000000000000080808080000000192422F0
:1031800022223F2008F8008080000000003F11202C
:1031900020110E000000008080800000000E112031
:1031A00020201100000000808088F800000E11200F
:1031B00020103F200000808080800000001F22221D
:1031C00022221300008080F0888888180020203F89
:1031D000202000000000808080808000006B94949C
:1031E0009493600008F8008080800000203F210058
:1031F00000203F2000809898000000000020203F21
:1032000020200000000000809898000000C080800E
:10321000807F000008F8000080808000203F2402AA
:103220002D302000000808F8000000000020203F9A
:10323000202000008080808080808000203F20004F
:103240003F20003F8080008080800000203F2100E0
:1032500000203F200000808080800000001F202090
:1032600020201F00808000808000000080FFA120BF
:1032700020110E000000008080808000000E1120D0
:1032800020A0FF80808080008080800020203F215F
:103290002000010000008080808080000033242412
:1032A00024241900008080E0808000000000001FBE
:1032B000202000008080000000808000001F20206F
:1032C00020103F20808080000080808000010E3030
:1032D0000806010080800080008080800F300C0391
:1032E0000C300F0000808000808080000020312E94
:1032F0000E312000808080000080808080818E7070
:103300001806010000808080808080000021302C21
:103310002221300000000000807C0202000000003A
:10332000003F404000000000FF00000000000000DF
:10333000FF0000000002027C800000000040403FCF
:103340000000000000060101020204040000000069
:103350000000000000020CC0002020E000FF70A070
:103360001008000002027F0010080641807F000163
:10337000060810001060028C0004E42424E4040415
:10338000FC04040004047E0100000F04040F4080CC
:103390007F00000000007E92929292929292929E02
:1033A00080E00000040404040C34040444847F041A
:1033B0000404040080FC96E584FC0008C8494AC85F
:1033C00008080000807F024C807F80601F00003F63
:1033D000404078002030AC63201800040404FC0452
:1033E00004040000226722121212404040407F4035
:1033F000404040000404E4040FF40404F444CF44C7
:103400004444040040407D44447D4445447C44455C
:103410007C404000807000FF201004040404FC0481
:1034200004040400806018070830000040807F001A
:10343000000000000000001870E0800000804000E4
:10344000000000000000FCF8080000000000808080
:1034500000000000000000000003C3700E01080817
:103460000888F83C0800FFFF18E010080C0603016C
:103470000100000000080818F8FE0300000080E0CA
:10348000380F01000000FFFF0001071C78E0C0803A
:1034900000000000000000060F0F000804020100F9
:1034A0000010101030703F1F0000000000000103EA
:1034B00003010000000000000830E0E000002020D0
:1034C00020202020202020202020202020E020302C
:1034D0003020000000020C387800008078060000E0
:1034E000F8F80808080808FC0800000000FF0000C1
:1034F0000000000000004040C0F03C03000000005D
:10350000FF7F10101010107F0000000000FF00006F
:1035100000000000000000003F3F0000000000002D
:10352000000000000000000000101030703F00009C
:103530000000000000000000000000FCF80808087F
:1035400008080808080808080808F8FC080000002F
:1035500000000000000000000000003F7F614141CA
:103560004141414141414141C141434340607E7835
:103570002000000000000808080808080838C8C82B
:103580000808080808080808FFFF080808080C0CC5
:10359000080000000000000000000000000001071B
:1035A00003000808101030703F1F000000000000EA
:1035B0000000000000000000408080C0BC988880AF
:1035C000C0800000000000081070600000008080D3
:1035D000000000000000000000FF00020C380000A6
:1035E000FF00010101F1E121212121E1F12101018E
:1035F0000100000000010101E1FF01051971210135
:10360000FF00000000FF7F00000000FFFF0000003F
:10361000000000000040300C0700000000103030B7
:103620003F4020180E0300000000000F3F303030F4
:103630003F381000000000FEC2E2A6242C2818002B
:10364000000000000000001F101019090B0E000000
:1036500000000000000000008080F0F0FCFCFFFF94
:103660008080E080E0E0FCFCFFFFFFFFFFFFFFFF4A
:1036700000000300707CBEDEEFFF77777777FFEF07
:10368000DEBE7C70000003031D1EEFF7F7EF1E1D6A
:103690000303000030307070E1E1FFFFFFFFFCFC2E
:1036A000787830300C0C0E0E8787FFFFFFFF7F7F8E
:1036B0001E1E0C0C3070E0FFFFEC78300C0E07FF84
:1036C000FF371E0CE4360008000000203C0000001C
:1036D000FC2A0008203700083C000020CC500000E5
:1036E0000C2B00080000000000A24A0400000000AB
:1036F00000000000010203040607080900000000A2
:103700000102030401020304060708090204060873
:1037100000000000000000000000000000000000A9
:0400000508000131BD
:00000001FF
